:020000020000FC
:10000000549852985398389A399A3A9A3B9A259A22
:10001000239A559A2B9871E093E6B3D0E0D023D081
:100020004C9B02D04DD0FCCF713031F003E204BDC7
:1000300098BD71E018D007C00FEF98B508BD03E375
:1000400004BD70E010D04C9BFECF08954443203D8A
:10005000200020282529200046616E3A20004F4EBE
:1000600020004F4646000F9300E86ED0ECE4F0E02D
:1000700017D051D0E0E0F1E01BD0E2E5F0E010D085
:1000800000EC62D0E8E5F0E00BD0703021F0EEE556
:10009000F0E006D003C0E2E6F0E002D00F91089550
:1000A0000F930591002311F05BD0FBCF0F910895C2
:1000B0000F930191002311F053D0FBCF0F910895BE
:1000C00059B1569556955370652F660F660F642B80
:1000D0006D3019F06E3031F00AC0703011F009D077
:1000E000C2DF05C0703011F00DD0BDDF00C0452F5C
:1000F00008950F9308B5073C19F00395039508BDC3
:100100000F9108950F9308B5013019F00A950A95DB
:1001100008BD0F91089588B58F3F09F4892F869502
:10012000082F1AE080E08093040180E380930301AC
:100130008EE28093020189D080E3F80EF0920101F3
:10014000080F0093000108950F932D98029508B9A8
:1001500013D06CD0029508B90FD06FD00F910895CD
:100160000F932D9A029508B907D060D0029508B96F
:1001700003D063D00F9108952B982B9A57D02B98CA
:1001800008950F933ED03DD03CD03BD03AD003E011
:1001900008B92D98F1DF3CD003E008B92D98ECDFC9
:1001A00045D003E008B92D98E7DF40D002E008B958
:1001B0002D98E2DF2DD008E2C7DF38D009E0C4DF98
:1001C00035D001E0C1DF32D006E0BEDF2FD00CE039
:1001D000BBDF2CD002E0B8DF29D00F9108950F9338
:1001E00009E005BD07EC07BD03E608BD03E204BD59
:1001F0000F9108950F9302E304D00A95E9F70F9148
:1002000008950F9302E30BD00A95E9F70F91089533
:100210000F9309E10BD00A95E9F70F9108950F9319
:100220000AE004D00A95E9F70F9108950F9305E0CD
:1002300004D00A95E9F70F9108950F930BE604D0C7
:100240000A95E9F70F9108950895FF1829E0001F16
:100250002A9509F40895FF1CF11A18F4F10E8894F8
:06026000F6CF0894F4CF74
:00000001FF
