:020000020000FC
:10000000249852985398389A399A3A9A3B9A259A52
:10001000239A2B9841D06ED006E42DD06BD005E406
:100020002AD0FCCF59B1569556955370652F660F5F
:10003000660F642B6D3019F06E3039F00CC00DD0A6
:10004000703011F47395002706C008D0703011F499
:100050007395002700C0452F0895089508950F93C4
:100060002D98029508B913D061D0029508B90FD028
:1000700064D00F9108950F932D9A029508B907D077
:1000800055D0029508B903D058D00F9108952B98F8
:100090002B9A4CD02B9808950F9333D032D031D077
:1000A00030D02FD003E008B92D98F1DF31D003E034
:1000B00008B92D98ECDF3AD003E008B92D98E7DFB6
:1000C00035D002E008B92D98E2DF22D008E2C7DF80
:1000D0002DD009E0C4DF2AD001E0C1DF27D006E03F
:1000E000BEDF24D00CE0BBDF21D002E0B8DF1ED0A1
:1000F0000F9108950F9302E304D00A95E9F70F9149
:1001000008950F9302E30BD00A95E9F70F91089534
:100110000F9309E10BD00A95E9F70F9108950F931A
:100120000AE004D00A95E9F70F9108950F9305E0CE
:1001300004D00A95E9F70F9108950F930BE604D0C8
:0A0140000A95E9F70F91089508955C
:00000001FF
